:1000000000200020F9000000A3070000A307000063
:10001000A3070000A3070000A3070000A10700003A
:10002000A1070000A1070000A1070000A30700002E
:10003000A3070000A1070000A3070000A507000018
:10004000A3070000A3070000A3070000A307000008
:10005000A3070000A3070000A3070000A3070000F8
:10006000A3070000A3070000A3070000A3070000E8
:10007000A3070000A3070000A3070000A3070000D8
:10008000C1120000A3070000AD150000A307000087
:10009000CD170000A3070000A3070000A30700007E
:1000A000A3070000A3070000A3070000A3070000A8
:1000B000A3070000A3070000A3070000A307000098
:1000C000A3070000610C0000A3070000A51B0000AF
:1000D000A3070000A3070000A3070000A307000078
:1000E000FD08000055090000ED090000C10A0000EC
:1000F000550B0000A307000008B5444B4CF22052FA
:100100001A804DF628121A800E3B4FF010021A800A
:1001100000F050FB3E4A3F4B1A603F4A04331A60DE
:100120003E4A136813F4807301D0002309E03C4970
:100130000B604FF4A851116003E03A4959589950A7
:100140000433394A394998188842F6D3384B02E0CB
:10015000002243F8042B374A9342F9D3364B00224E
:100160001A60364B0A321A70354B1A321A70843ABA
:10017000013B1A70334B1B7813F0020FFAD0314B4E
:100180001B7813F0100FFAD12E4B1B7803F00C03E1
:10019000082BF9D12C4B03221A703D3201331A700F
:1001A000284B1B7813F0200FFAD0264B1B7813F046
:1001B000400FFAD0254A264B1A60264B20221A708F
:1001C000204B1B7803F00C030C2BF9D1224B02229D
:1001D0001A60224A443B1A60214B4BF67F321A6068
:1001E0000722043B1A6062B600F09DFF0C4B1B68AF
:1001F00013F0010F02D01B4800F072FD03F0C8FDA0
:1002000000F0D8FA00F0E4F9FEE700BF0E20054048
:10021000823F0400388004400100002B10D00340CE
:1002200014D003407C90000010E7FF1FC0ECFF1FBC
:10023000C0ECFF1FD4F1FF1F08ED00E000500640A6
:1002400001400640064006400440064000000311FD
:10025000448004400040064048800440C01005002F
:1002600014E000E000DD6850FFFFFFFFFFFFFFFF2D
:10027000FFFFFFFFFFFFFFFFFFFFFFFFFFFFFFFF8E
:10028000FFFFFFFFFFFFFFFFFFFFFFFFFFFFFFFF7E
:10029000FFFFFFFFFFFFFFFFFFFFFFFFFFFFFFFF6E
:1002A000FFFFFFFFFFFFFFFFFFFFFFFFFFFFFFFF5E
:1002B000FFFFFFFFFFFFFFFFFFFFFFFFFFFFFFFF4E
:1002C000FFFFFFFFFFFFFFFFFFFFFFFFFFFFFFFF3E
:1002D000FFFFFFFFFFFFFFFFFFFFFFFFFFFFFFFF2E
:1002E000FFFFFFFFFFFFFFFFFFFFFFFFFFFFFFFF1E
:1002F000FFFFFFFFFFFFFFFFFFFFFFFFFFFFFFFF0E
:10030000FFFFFFFFFFFFFFFFFFFFFFFFFFFFFFFFFD
:10031000FFFFFFFFFFFFFFFFFFFFFFFFFFFFFFFFED
:10032000FFFFFFFFFFFFFFFFFFFFFFFFFFFFFFFFDD
:10033000FFFFFFFFFFFFFFFFFFFFFFFFFFFFFFFFCD
:10034000FFFFFFFFFFFFFFFFFFFFFFFFFFFFFFFFBD
:10035000FFFFFFFFFFFFFFFFFFFFFFFFFFFFFFFFAD
:10036000FFFFFFFFFFFFFFFFFFFFFFFFFFFFFFFF9D
:10037000FFFFFFFFFFFFFFFFFFFFFFFFFFFFFFFF8D
:10038000FFFFFFFFFFFFFFFFFFFFFFFFFFFFFFFF7D
:10039000FFFFFFFFFFFFFFFFFFFFFFFFFFFFFFFF6D
:1003A000FFFFFFFFFFFFFFFFFFFFFFFFFFFFFFFF5D
:1003B000FFFFFFFFFFFFFFFFFFFFFFFFFFFFFFFF4D
:1003C000FFFFFFFFFFFFFFFFFFFFFFFFFFFFFFFF3D
:1003D000FFFFFFFFFFFFFFFFFFFFFFFFFFFFFFFF2D
:1003E000FFFFFFFFFFFFFFFFFFFFFFFFFFFFFFFF1D
:1003F000FFFFFFFFFFFFFFFFFFFFFFFFFFFFFFFF0D
:10040000FFFFFFFFFFFFFFFFFFFFFFFFFEFFFFFFFD
:100410004EF6C043C1F6FF731A780AB9012018706E
:10042000704700BF4EF6C040C1F6FF7008B50368C4
:100430002BB140F20003C0F2000303B1984708BD9E
:100440000146034808B503681B68984708BD00BF0C
:10045000C4ECFF1FF0B5FF20BDB0FFF7F1FF842013
:10046000FFF7EEFF00252C467022012302920026A2
:100470000D4804A9E2B200930196039302F0F4FE42
:100480000A4F7F1904AB985D17F8013B0236C01A7A
:10049000C0B2FFF7D5FFE02EF4D10134A4B270351D
:1004A000702CE1D13DB0F0BDD4ECFF1F405C0000EA
:1004B0002E4B10B59B69002B4BD12C4800F0C0F897
:1004C0000028FAD0294800F0B9F8C0B2FF28F4D1CA
:1004D000264C204600F0B4F80028F9D0204600F061
:1004E000ADF8C0B2012805D1A061FE30FFF7A8FF2A
:1004F00081202BE0042831D0FF21204600F0A2F813
:10050000A121204600F09EF820460121BDE81040C0
:1005100000F098B8154800F091F8C4B2134800F004
:100520008FF810B1FF2CF5D101E0FF2C11D10F4C49
:10053000204600F085F80028F9D0204600F07EF82B
:10054000C0B2022805D10023A3618030BDE810406D
:1005500076E7064800F074F80028DBD1044B20242D
:100560001C60FFF777FF034B1C6010BDC4ECFF1F3E
:1005700088F00F4084F00F4010B540F2413088B051
:10058000114C00F00FFE00230D200121A36100F0AB
:100590000FFC0E4B20221A600523009301330193B8
:1005A000103302930F3303930B33049305932F3BC4
:1005B0000693079304F1100002211D3A033302F061
:1005C0009DFE08B010BD00BFC4ECFF1F84F00F40BB
:1005D00008B5FFF7D1FFFFF76BFF01F0D1FEFAE797
:1005E00010B5064C00210D22204604F009F82046E3
:1005F00000F010F8024B236010BD00BFC4ECFF1FD9
:10060000085C0000024A026000220271704700BFCD
:10061000188F000010B50446FFF7F4FF044B204686
:1006200023604FF47A73A3600023237310BD00BFCF
:10063000285C000000F0BABE00F016BE00F000BE5C
:1006400000F0F2BD084608B500F0BCFE012008BD70
:10065000094B60221A707F3A01331A70074B7C32C3
:100660001A604C3A04331A60054A002313600432BE
:100670001360044A137070470040074008B00340FD
:1006800020B00340E0ECFF1F70B51D4B1B6813F05A
:100690008001FAD11B4A1C4B1B681668043215688E
:1006A00004321468F318043210685B1904321268BB
:1006B0001B191B189B185B086FEA4343134A6FEA28
:1006C00053439BB21360124B30321B6816680432DE
:1006D000156804321468F318043210685B19043288
:1006E00012681B191B189B185B086FEA4343094AE1
:1006F0006FEA53439BB21360074A117070BD00BF8D
:1007000024B003403CB0034038B003402CB0034059
:1007100058B0034030B00340E0ECFF1F024B1B78A1
:1007200003B1B1E7704700BFE0ECFF1F102828BFFE
:100730001020024BC0F110001870704710E7FF1F27
:100740000D2810B504460CD9172801D80E3C07E037
:10075000A0F12203DBB2052B01D9002010BD183C0B
:10076000E4B20A4B1B780BB1FFF78EFF084B1A5D02
:10077000084B1A60074B1B6813F0800FFAD0064B2A
:100780001868064B1B78D84010BD00BFE0ECFF1F77
:10079000408D000000B0034010B0034010E7FF1F81
:1007A000FEE7FEE7024B1A6801321A60704700BF8D
:1007B00078EDFF1F7047034A136818181060184639
:1007C000704700BF14E7FF1F0020704700207047EC
:1007D000FEE700BF002300E00133C25C002AFBD12A
:1007E0001846704710B50023B0FBF2FC02FB1C0C4E
:1007F000BCF1090F94BF0CF1300C0CF1370C5FFA0F
:100800008CFCB0FBF2F001F803C008B10133EBE758
:100810005A18507006E011F800C054780C5482F851
:1008200001C00130C0EB030C013A6045F3DB084620
:1008300010BD031E10B50C4602DBBDE81040D1E729
:100840002D2001F8010B5842FFF7CCFF204610BDC8
:10085000084B4FF480721A604FF400721A604FF424
:1008600080621A604FF400621A604FF480521A607E
:10087000704700BF04E100E0212830B521D8042AE8
:100880001FD8DFE802F0090B07030500092306E083
:100890000B2304E00A2302E0082300E00C23094AAA
:1008A00002EBC002526872B61468074D24F470243B
:1008B000146044F0807444EA034345F82010136048
:1008C00062B630BD508D0000E4ECFF1F094B03EB16
:1008D000C0035A6872B6136823F0867323F440335A
:1008E00043F080731360044B002243F8202062B66B
:1008F000704700BF508D0000E4ECFF1F134B10B594
:100900001C6814F4805F1C6004D0114BDA680AB1D3
:10091000DB68984714F4005F04D00D4B1A690AB1E4
:100920001B69984714F0200F04D0094B1A6E0AB1C6
:100930001B6E984714F0100F06D0054BD3F8842097
:1009400012B1D3F88430984710BD00BFA090044086
:10095000E4ECFF1F234B10B51C6814F4803F1C60AF
:1009600004D0214B1A680AB11B68984714F4003F61
:1009700004D01D4B5A680AB15B68984714F0010F08
:1009800004D0194B1A6C0AB11B6C984714F0020F73
:1009900004D0154B5A6C0AB15B6C984714F0080FE1
:1009A00004D0114B9A6C0AB19B6C984714F0040F59
:1009B00004D00D4BDA6C0AB1DB6C984714F4002FAD
:1009C00004D0094B5A6E0AB15B6E984714F4802F1D
:1009D00006D0054BD3F8802012B1D3F88030984769
:1009E00010BD00BFA0A00440E4ECFF1F324B10B5C7
:1009F0001C6814F0080F1C6004D0304B5A6A0AB10E
:100A00005B6A984714F0100F04D02C4B9A6A0AB115
:100A10009B6A984714F0400F04D0284BDA6A0AB159
:100A2000DB6A984714F0800F04D0244B1A6B0AB18C
:100A30001B6B984714F0200F04D0204B5A6B0AB15F
:100A40005B6B984714F0010F04D01C4BDA6B0AB1B2
:100A5000DB6B984714F0020F04D0184B9A6D0AB163
:100A60009B6D984714F0040F04D0144BDA6D0AB153
:100A7000DB6D984714F4007F04D0104BDA6E0AB196
:100A8000DB6E984714F4807F04D00C4B1A6F0AB1C8
:100A90001B6F984714F4806F04D0084B5A6F0AB14B
:100AA0005B6F984714F4006F04D0044B9A6F0AB13F
:100AB0009B6F984710BD00BFA0B00440E4ECFF1F3F
:100AC000224B10B51C6814F0010F1C6004D0204BA1
:100AD0009A680AB19B68984714F0800F04D01C4BA9
:100AE0005A690AB15B69984714F0100F04D0184B8B
:100AF0009A690AB19B69984714F0040F04D0144B0B
:100B0000DA690AB1DB69984714F0080F04D0104B7A
:100B10001A6A0AB11B6A984714F0020F04D00C4BF2
:100B20009A6B0AB19B6B984714F0200F04D0084BC6
:100B30001A6D0AB11B6D984714F0400F04D0044B96
:100B40005A6D0AB15B6D984710BD00BFA0C004404C
:100B5000E4ECFF1F0A4B10B51C6814F0020F1C6078
:100B600004D0084B9A6E0AB19B6E984714F0010F9F
:100B700004D0044BDA6F0AB1DB6F984710BD00BF99
:100B8000A0D00440E4ECFF1F094B1A6842F40002B5
:100B90001A60084A00231360074A1360074B4FF09E
:100BA000FF3283F88820064B03321A60704700BF7B
:100BB0003C8004400070034038710340E4ECFF1FA8
:100BC00004E100E0212830B53ED80AB9013A05E039
:100BD0004A434FF47A73B2FBF3F252001B4B93FB80
:100BE000F1F11B4B03EBC0035D6872B6194B93F830
:100BF00088C060451AD0BCF1210F05D8D3F88C30DD
:100C00004FF0010C83F800C0114B124C53F83030F8
:100C100084F8880003F58070C4F88C00012083F804
:100C2000000183F880024FF4A2732B60094BC3F8D4
:100C30009020094A13688B4205D0084B00201860A9
:100C4000116003221A6062B630BD00BF00366E012B
:100C5000508D0000E4ECFF1F3071034038710340F9
:100C60000D4B012119600D4BD3F8902052B1D3F8F0
:100C70008C00B2F1FF3F80F880100CD0013AC3F82D
:100C80009020704706490A60D3F88C100A704FF024
:100C9000FF3283F8882070473C710340E4ECFF1F6B
:100CA0003871034021280FD872B6084B93F888207A
:100CB000824208D1064900220A60D3F88C100A70DB
:100CC000013A83F8882062B6704700BFE4ECFF1F4A
:100CD00038710340014B1868704700BF00D00340D3
:100CE000044B054900221A600A60044A1060102271
:100CF0001A60704714D0034004D0034000D0034072
:100D00000028C0F100020DDB00024FF48073B0F543
:100D1000004F05D3013B8118012B01D00846F6E7AF
:100D2000000A0FE051424FF480731202B2F5014FF6
:100D300005D3013B5018012B01D00246F6E7100AFB
:100D4000C0F58070013B024940EA0320086070470B
:100D50000CD00340212810B51BD80E4A52F8303071
:100D600093F8804244B119B1012283F8802010BD6C
:100D7000012283F8002110BD02EBC000436821B1BD
:100D80001A6842F003021A6010BD1A6802F00202EB
:100D90001A6010BD508D0000212801D90020704735
:100DA000024B53F8303093F800027047508D00002A
:100DB000212817D80C4A012902EBC0035B6852F8BE
:100DC000302004D182F880124FF4A27205E0002096
:100DD00082F8800219B94FF480721A60704740F2AD
:100DE00003121A60704700BF508D000070B50D46A9
:100DF00001210446FFF7DCFF002D02DC2046002124
:100E000003E0FF2D08DD20460121FFF7A3FF204668
:100E10000121BDE87040CBE7E31EDBB2012B94BF9C
:100E20002D4B2E4BE21E1B6801336B431B0A142A09
:100E300049D8DFE802F00B11171D4848232948481C
:100E4000484848484848482F353C4200244A1360E7
:100E50004FF45172234B28E0234A13604FF4517230
:100E6000224B22E0224A136040F24442214B1CE014
:100E7000214A136040F24442204B16E0204A13609E
:100E800040F244421F4B10E01F4A136040F24442BC
:100E90001E4B0AE01E4A136040F244421D4B04E020
:100EA0001D4A13601D4B40F244421A6070BD1C4A3B
:100EB000136040F244421B4BF7E71B4A136040F2B9
:100EC00044421A4BF1E720467F2DD4BF0021012177
:100ED000BDE870403EE700BF089003400880034033
:100EE0001090034030900440189003403490044028
:100EF000488003401CC004403080034010C00440C0
:100F0000208003400CB004402880034010B004400F
:100F10003880034014C004404080034018C004409F
:100F20001080034004B004401880034008B004401F
:100F30002DE9F04105460C4690460027012606EAB9
:100F400008012846FFF706FF01212046FFF702FFB0
:100F50000137002120467600FFF7FCFE082FF6B28D
:100F6000EDD1BDE8F0812DE9F04105460C469046F3
:100F70000027802606EA08012846FFF7EBFE01213C
:100F80002046FFF7E7FE013700212046FFF7E2FE8B
:100F90007608082FEED1BDE8F0810AB91A46C7E7F6
:100FA0001A46E0E72DE9F041002480460F46254629
:100FB000012638460121FFF7CDFE4046FFF7ECFE43
:100FC00000B135430021384601347600FFF7C2FEF8
:100FD000082CF6B2EDD12846BDE8F0812DE9F041AC
:100FE000002480460F462546802638460121FFF71B
:100FF000B1FE4046FFF7D0FE00B135430021384630
:101000000134FFF7A7FE7608082CEED12846BDE88C
:10101000F08102B9C6E7E1E772B60D4B0D4A1968D7
:101020000D4BD3F89430126862B612F0806F04D082
:101030004BF64E32914288BF01334BF67F32521A43
:101040003021B2FBF1F24FF47A7000FB03207047BD
:1010500018E000E004ED00E0E4ECFF1F70B5CD0007
:1010600004466D1A01E0013D15D02378002BFAD11A
:1010700001E0013D0FD02378002BFAD0FFF7CCFF21
:10108000064601E0013D06D02378002BFAD1FFF798
:10109000C3FF801B70BD002070BD70B5CD0004463D
:1010A0006D1A01E0013D15D02378002BFAD001E044
:1010B000013D0FD02378002BFAD1FFF7ADFF064694
:1010C00001E0013D06D02378002BFAD0FFF7A4FF02
:1010D000801B70BD002070BD212801D90020704701
:1010E000064B29B153F83000114600F50070B5E702
:1010F00053F83000114600F50070CEE7508D000027
:1011000038B50546FFF788FF0446FFF785FF001B4B
:10111000B0F57A7F03D3013D04D004F57A7401F071
:101120002FF9F2E738BD10B5FFF792FB164B002000
:10113000186047F6FF710433144A196028231360BE
:1011400008321360083213600832136008321360EB
:1011500008321360083213600D4C08321360082205
:1011600022600C4C20600C4801600C490B6089180F
:101170000B600B4B1A60FFF76BFAFFF705FDBDE83C
:10118000104000F079BC00BF048003400C80034095
:101190000080034004900340089003400C900340FB
:1011A00000900340194B1A6842F480621A60184B91
:1011B00000221A705A709A70DA701A71154B40F248
:1011C00013321A60313204331A60420B124B02F0B0
:1011D0001F021A704209D2B201331A7000F01F00C8
:1011E00009330E4A1870042313701132137002323F
:1011F00013700B4B6FF077021A70B4320D3B1A70FC
:10120000084B4FF480321A60704700BF34800440AE
:101210007CEDFF1F40A0044000A0064002A0064055
:1012200010A0064000E100E0044A1078537898428C
:1012300001D3C01A70474030C01A70477CEDFF1FC1
:10124000084A11785378994202D14FF0FF30704725
:101250000133DBB23F2B88BF00239918087A537003
:10126000704700BF7CEDFF1F054B19785A789142FB
:1012700002D14FF0FF307047D318187A704700BF83
:101280007CEDFF1F0A4B1B6813F4806F0ED0094BD7
:1012900040211A7802F0CB021A70074A11701A78AE
:1012A00042F034021A70054B5A781A70704700BF2A
:1012B0003480044003A0064011A006407CEDFF1FCF
:1012C00010B5334B1B7813F0300F24D072B6314B6E
:1012D0001B78194633B9304B40221B782F4B1A70BC
:1012E00062B618E062B62E4B1A7858782A4B93F8FB
:1012F00000C0531CDBB23F2B88BF0023834204D0C5
:10130000274A9A1882F808C01A460139C9B200293A
:10131000ECD1234B1A70234B197811F0800F28D091
:1013200001331B7813F0800F23D01F4B1A781C4B0E
:10133000C2F108029878DB78D2B283420FD0013331
:10134000DBB2174CF92B88BF00231C1994F848C056
:10135000013A114CD2B284F800C0002AEDD1104AF3
:10136000D3700B4B1B7813F0800F02D00D4B7C22F7
:101370001A7011F0400F0AD0054B1B7813F0400F84
:1013800005D0074B00221A71064B3C321A7010BD73
:1013900004A0064016A0064007A0064011A0064083
:1013A0007CEDFF1F03A0064014A0064008B501E035
:1013B00000F0E6FF024B1B79002BF9D108BD00BFFE
:1013C0007CEDFF1F38B50F4B05461B6813F4806F8B
:1013D00016D00D4B9C780134F92C88BF002401E015
:1013E00000F0CEFF084BDA78A242F9D0E21882F87A
:1013F0004850E4B201221A719C70044B053A1A70ED
:1014000038BD00BF348004407CEDFF1F03A00640C0
:1014100000F00F00092801D8303000E03730D1E764
:1014200010B504460009FFF7F3FF2046BDE8104061
:10143000EEE710B50446000EFFF7F2FF200CFFF7B1
:10144000EFFF200AFFF7ECFF2046BDE81040E7E77A
:1014500010B50446000AFFF7E3FF2046BDE8104040
:10146000DEE770B50646002408E00A2D02D10D2003
:10147000FFF7A8FF2846FFF7A5FF0134355D002DD3
:10148000F3D170BD08B50E4B1B6813F4806F02D109
:1014900008BD00F075FF0B4B19790A460029F8D1F9
:1014A00009494FF480300860084909480A7040F241
:1014B00003110160043001601A705A7008BD00BF4A
:1014C000348004407CEDFF1F80E100E003A0064073
:1014D00040A00440154B40F213311A6842F40062F8
:1014E0001A60134A0023137053709370D3701371F2
:1014F000104A1160313104321160410B0E4A01F083
:101500001F01117041090132C9B2117000F01F00B2
:1015100009321070083A13700E321370074B2C22E8
:101520001A70074B4FF480221A60704734800440D1
:10153000C0EEFF1F0CB0044000B0064003B00640F0
:1015400000E100E0044A10785378984201D3C01AB1
:1015500070474030C01A7047C0EEFF1F084A11782C
:101560005378994202D14FF0FF3070470133DBB21C
:101570003F2B88BF00239918087A5370704700BF2B
:10158000C0EEFF1F054B19785A78914202D14FF0F7
:10159000FF307047D318187A704700BFC0EEFF1FA6
:1015A000014B5A781A707047C0EEFF1F204B1B7812
:1015B00013F0200F0ED01F4B1F4A18781378517864
:1015C0000133DBB23F2B88BF00238B4202D0991836
:1015D000087213701948017811F0800F19D0144B5C
:1015E0001B7813F0800F14D0134A92F802C0D378FE
:1015F0009C4502D16C2303700BE00133DBB2272B37
:1016000088BF0023981890F848C00A4880F800C0A6
:10161000D37011F0400F0AD0054B1B7813F0400F28
:1016200005D0054B00221A71044B2C321A707047FA
:1016300004B0064007B00640C0EEFF1F03B00640EE
:1016400008B501E000F09CFE024B1B79002BF9D19C
:1016500008BD00BFC0EEFF1F38B50F4B05461B6825
:1016600013F4006F16D00D4B9C780134272C88BFE3
:10167000002401E000F084FE084BDA78A242F9D0A1
:10168000E21882F84850E4B201221A719C70044BAF
:10169000553A1A7038BD00BF34800440C0EEFF1FB9
:1016A00003B0064008B50E4B1B6813F4006F02D15F
:1016B00008BD00F065FE0B4B19790A460029F8D1E8
:1016C00009494FF480200860084909480A7040F22F
:1016D00003110160043001601A705A7008BD00BF28
:1016E00034800440C0EEFF1F80E100E003B00640FC
:1016F0000CB00440154B40F213311A6842F480528A
:101700001A60134A0023137053709370D3701371CF
:10171000104A1160313104321160410B0E4A01F060
:101720001F01117041090132C9B2117000F01F0090
:1017300009321070083A13700E321370074B2C22C6
:101740001A70074B4FF480121A60704734800440BF
:1017500030EFFF1F08C0044000C0064003C0064031
:1017600000E100E0044A10785378984201D3C01A8F
:1017700070474030C01A704730EFFF1F084A117899
:101780005378994202D14FF0FF3070470133DBB2FA
:101790003F2B88BF00239918087A5370704700BF09
:1017A00030EFFF1F054B19785A78914202D14FF064
:1017B000FF307047D318187A704700BF30EFFF1F13
:1017C000014B5A781A70704730EFFF1F204B1B787F
:1017D00013F0200F0ED01F4B1F4A18781378517842
:1017E0000133DBB23F2B88BF00238B4202D0991814
:1017F000087213701948017811F0800F19D0144B3A
:101800001B7813F0800F14D0134A92F802C0D378DB
:101810009C4502D16C2303700BE00133DBB2272B14
:1018200088BF0023981890F848C00A4880F800C084
:10183000D37011F0400F0AD0054B1B7813F0400F06
:1018400005D0054B00221A71044B2C321A707047D8
:1018500004C0064007C0064030EFFF1F03C006402B
:1018600008B501E000F08CFD024B1B79002BF9D18B
:1018700008BD00BF30EFFF1F38B50F4B05461B6892
:1018800013F4805F16D00D4B9C780134272C88BF51
:10189000002401E000F074FD084BDA78A242F9D090
:1018A000E21882F84850E4B201221A719C70044B8D
:1018B000553A1A7038BD00BF3480044030EFFF1F26
:1018C00003C0064008B50E4B1B6813F4805F02D1BD
:1018D00008BD00F055FD0B4B19790A460029F8D1D7
:1018E00009494FF480100860084909480A7040F21D
:1018F00003110160043001601A705A7008BD00BF06
:101900003480044030EFFF1F80E100E003C0064058
:1019100008C00440014B0F221A707047C0200740D6
:1019200030B50C4B0C4C1A7842F0020C04EBCC0591
:101930006860587882F00102002814BFC825882505
:1019400045EA014180F0010044F83C1058701A70DB
:1019500030BD00BFA0EFFF1F00E0FF1F01380E28C1
:1019600001D90020704772B6044B03EB800358681E
:1019700008B142685A6062B6704700BFA0EFFF1F0F
:10198000034672B6002002E01A885B688018002BBC
:10199000FAD162B6704701380E2801D9002070478D
:1019A000024B03EB80004068EAE700BFA0EFFF1F97
:1019B00001380E2801D900207047024B03EB80004C
:1019C000006CDDE7A0EFFF1F01380E2801D90020D1
:1019D0007047064B03EB8000036C72B6002001E0F9
:1019E0005B680130002BFBD162B67047A0EFFF1F90
:1019F000431E0E2B10B538D840011C4A40F0100091
:101A0000101872B61A4A9C1894F87C409446032C1D
:101A100009D8DFE804F0180206050830022213E0B6
:101A20000830042210E00CEB8302106C08B911643A
:101A300002E0D2F88C2051600D4A02EB8303C3F818
:101A40008C1062B610BD0322634483F87C2001F140
:101A5000080343600A8800F00803002B14BFC82362
:101A6000882343EA0243036062B610BD00E0FF1F13
:101A7000A0EFFF1F00BE704700231F490022CA507D
:101A8000C9180833B3F5F07F4A60F6D11B4B1A68CA
:101A900042F480221A601A4B6FF07F021A70184BC2
:101AA0001A7812F0800FFAD1134A1649100AC0B200
:101AB0000870100C1431C0B20870120E04310A7094
:101AC0004FF0FF3234390A7008310A7078390A70E1
:101AD0001A78002142F040021A700B4A0123137059
:101AE0006C3211707C3A1370084B08221A60084B54
:101AF00092181A70704700BF00E0FF1F3480044046
:101B00000C2107409C2007409420074004E100E09E
:101B10000821074010B572B601221D4B9B1813F81F
:101B2000013C13F0080F27D01A4B910053F83140B5
:101B300074B903EB421208305060174A43F8312061
:101B4000164B93F8C820013A83F8C82062B610BD3E
:101B500041F0010153F8314074B903EBC102083080
:101B600050600F4A43F831200C4B93F8C820013ADB
:101B700083F8C82062B610BD01320F2ACDD162B6FB
:101B8000064B0F3A83F8C820BDE8104000F0B8BA01
:101B9000B48E000000E0FF1F88004000A0EFFF1F90
:101BA000C8004000F8B5A54B1C7814F0040F19D0FC
:101BB000A34B93F8C92092B193F8CA1031B14A1ED1
:101BC000D2B283F8CA200AB9FFF754FF9D4A1178B0
:101BD00029B14B1EDBB213700BB900F0D1FA974B51
:101BE00004221A7014F0080200F03082964B1A7822
:101BF000964B15094FEA920140F0AD8153F8310040
:101C000003EBC104800800F00F00013862680C2863
:101C100000F29D81DFE810F0580158019B019B0103
:101C20009B019B019B019B0174019B019B019B01FB
:101C30000D001068824C0127C4F8CC00526840F2B5
:101C40008160C4F8D020824A43F831207F490022C5
:101C50000A618A61B4F8CC30C4F8D420834267703A
:101C600019D8B3F5D06F80F0CF80B3F5817F00F045
:101C7000A98006D8802B00F08A80822B40F0DB8080
:101C80008AE040F20232934200F0AD80B3F5A06FDB
:101C900040F0D180ECE0B3F5106F10D004D8B3F56C
:101CA000086F40F0C8806DE042F221018B4200F0E5
:101CB000088142F221218B4240F0BD80B5E094F8CA
:101CC000CE3001F5E07584F8C9300C46236A13F074
:101CD000800F05D0606A083800F012FA00232362F2
:101CE0000834AC42F2D1564B00225A4D83F8C8203A
:101CF0000124594B1B1913F8013C13F0080F05F888
:101D0000043B2FD000F01EFA504B0146A20038B120
:101D1000083103EB44104160504943F8321007E0AA
:101D200043F83200464B93F8C820013283F8C820AC
:101D300000F008FA454B0146A20048B142F001020A
:101D4000083103EBC2004160414943F8321009E019
:101D500042F0010243F83200394B93F8C8200132B7
:101D600083F8C820A100394B002241F0020041F065
:101D7000030143F8302043F83120394B01349D42B0
:101D8000B7D175E094F8C93004F8D83F72E084F810
:101D9000D82084F8D9200EE0B4F8D0300F2B4AD8E0
:101DA00084F8D82084F8D9209A002E4BD3181B78B9
:101DB00013F0020F02D10227D8345BE004F8D87F79
:101DC000022757E0B4F8D03003F07F020F2A32DC4C
:101DD000B4F8CE70002F2ED19A00224BD3181A7867
:101DE00022F002020EE0B4F8D03003F07F020F2A96
:101DF00021DCB4F8CE70F7B99A001A4BD3181A78D0
:101E000042F002021A7034E0B4F8CE10B4F8D020D8
:101E1000154B5C687CB11888884204D15888904280
:101E200001D11F8926E00C33F3E7B4F8CE100F4B35
:101E3000174619701DE0FFF76DFD42E08020074056
:101E4000A0EFFF1F48F1FF1F9020074000E0FF1F99
:101E5000C8004000C4200740B48E00008800400045
:101E6000FC200740C0200740608E0000CFF1FF1F1C
:101E700000273C46964B2046B3F8D2309F4228BFFD
:101E80001F46402F34BF3E4640263146FFF748FDEF
:101E9000BF1B03D1402E14D13D4603E0402F34BF79
:101EA0003D464025A41920462946FFF739FD7F1BF2
:101EB00001D1402D05D1864B6419C3F8D440A3F855
:101EC000E0700122834B41E0814BB3F8CC1042F229
:101ED0002103994211D10023D05C7F49585401332A
:101EE000072BF9D10B68862B03D1794B0F2283F88E
:101EF000CA2000200146FFF713FD784B236026E03F
:101F0000734DD5F8D460AEB1B5F8E0403046402C02
:101F100028BF40242146FFF703FDB5F8E0301B1B26
:101F20009BB2A5F8E0300BB9402C00D13319684AB8
:101F3000C2F8D430664BB3F8CC20B2F5A06F06D10E
:101F4000002283F8CD2093F8CE20654B1A70614BA8
:101F500001221A7076E05FFA81FC03EBCC04013DAC
:101F60006168EDB212F00802A1F10800584E4FEA84
:101F700085073ED0BF1900F0C3F83B6CAE19DBB14A
:101F80005A683A6403F10802626096F87C2012B144
:101F9000012A04D101E0032202E0022200E004222F
:101FA00086F87C201B8804F00802002A14BFC8228F
:101FB000882242EA03433DE096F87C30032B0DD89B
:101FC000DFE803F040400206414BED18002302E039
:101FD0003F4BED18012385F87C3033E03C4B04F097
:101FE0000804002C14BF03240224ED1885F87C405B
:101FF00028E003EBCC035B884260BE1921F8083C63
:10200000736842800BB9706002E0D6F8E430586023
:102010002F4E06EB8505C5F8E40000F093F8034663
:1020200050B1083363602F4A2C4B04F0080100299B
:1020300008BF1346236005E0206096F8C8300133DE
:1020400086F8C830284B08221A70ACE514F0010F4E
:1020500024D020481E4902230370224C234B0A70CF
:1020600001F5907501F5B0711C60D9601A619A6133
:102070005D609C601E4B0D2119701E494FF0FF33AF
:102080000B7008390B7018310A701B4A13701B4B08
:102090006FF060021A7001230370F8BD14F0800F16
:1020A00005D0134B0D221A708D3A403B1A7014F074
:1020B000020F05D00F4B1A781A700222083B1A70D3
:1020C00014F0100F02D0084B10221A70F8BD00BF98
:1020D000A0EFFF1F94200740C8F1FF1FC800400079
:1020E00098200740880040008020074000E0FF1F44
:1020F000C0200740882007408C20074084200740EC
:102100000C4B4822C31AB3FBF2F3112B11D80A4A25
:10211000127822B1094A12780AB1FFF7FBBC72B6F5
:102120004FF0004131FA03F3054A11680B43136085
:1021300062B6704700E2FF1F68F0FF1F69F0FF1FE3
:10214000B0E7FF1F72B60C4A1168B1FA81F3112B88
:1021500002D962B6002070474FF00040D84021EA13
:102160000001116062B6482253430449483AC81836
:10217000CA504260704700BFB0E7FF1F00E2FF1F78
:1021800038B5064C23781D4633B9616804204B8866
:102190000B80FFF72DFC656038BD00BF40F1FF1FCD
:1021A00038B5084B1B785BB1074C616841B14B886F
:1021B00033B10025257204200B80FFF719FC656000
:1021C00038BD00BF69F0FF1F40F1FF1F2F4B0122F8
:1021D0002DE9F0410C4680461A704FE06D682DBB2A
:1021E0002B4B1B781A4613B9284B1A7017E00420A2
:1021F000FFF7EAFB072807D8244E01233370FFF7C7
:10220000A1FF706090B93070013547F209539D42CB
:1022100002D01E4B5B7A33B11C4B01225A724FF035
:10222000FF30BDE8F08100F0ABF8D9E7174A002392
:10223000516853724A88C2F14007BC4238BF2746F2
:1022400002F10800D21992B208184A803E4618F8E6
:1022500003C000F803C00133013EF8D13F2AB8445F
:102260000A4D02D805232B7207E04FF040030B8084
:1022700004202E72FFF7BCFB6E60E41B034D002CA4
:10228000ACD12C702046BDE8F08100BF40F1FF1FAB
:1022900069F0FF1F07B502AB03F8010D18460121D5
:1022A000FFF794FF0EBD10B5084B1B786BB1084CBF
:1022B000E06818B1FFF724FF0023E3600320FFF775
:1022C0004DFB10B1FFF71CFFF8E710BD69F0FF1FD1
:1022D00040F1FF1F38B5094B1B7873B1084BDB6821
:1022E0005BB90320FFF73AFB054CE06028B1058895
:1022F0001DB9FFF705FFE560F3E738BD69F0FF1F83
:1023000040F1FF1F08B5FFF7E5FF054BDB6813B988
:102310004FF0FF3008BD5A889B18187A08BD00BFDF
:1023200040F1FF1F38B50B4DFFF7D4FFE86810B937
:102330004FF0FF340CE043881A18147A02880133F6
:10234000934204D3FFF7DCFE0023EB6000E0438000
:10235000204638BD40F1FF1F08B5074B1B781846D3
:1023600013B10320FFF717FB044BDB681BB11A887E
:102370005B88D31AC01808BD69F0FF1F40F1FF1F2A
:102380007047FFFF10B5034C2046FEF743F9024BA0
:10239000236010BD50F1FF1F085C000010B5034C16
:1023A000204600F007F8024B236010BD60F1FF1FCC
:1023B000D08E000010B50446FEF72CF9014B2046E4
:1023C000236010BD085C0000FFF73AB9FFF7DAB8E8
:1023D000FFF7C4B8FFF7B6B8084608B5FFF73CF9F1
:1023E000012008BD10B5034C2046FFF7E3FF024B68
:1023F000236010BD70F1FF1FF08E0000FFF730BAB0
:10240000FFF7D0B9FFF7BAB9FFF7ACB9084608B57E
:10241000FFF732FA012008BD2DE9F04100260446FD
:102420000D469046374608E02368A95D1B682046A4
:10243000984701363F1808F1FF38B8F1000FF3D183
:102440003846BDE8F08107B5044B02A91B8802227B
:1024500021F8043D03685B6898470EBD088F0000B3
:1024600030B504468BB0964622B90368C9B21B68E2
:10247000984737E0012A08BF4FF00A0E29B93022E9
:102480008DF825204FF0210C19E04FF0210CB1FB05
:10249000FEF20EFB1212D2B2092A01D8303200E04D
:1024A00037320AADD2B205EB0C00B1FBFEF100F8F9
:1024B000242C21B10CF1FF3C5FFA8CFCE7E74BB117
:1024C0000CF1FF3C0AAA5FFA8CFC02EB0C032D22F4
:1024D00003F8242C236801A95B6820466144CCF1F1
:1024E000220298470BB030BD002901DB002301E038
:1024F00049422D230A22B3E72DE9FF4D194605462F
:10250000904610461C460022002301F0F1FB9DF886
:102510003060824618B104F100444FF0010A0027F0
:1025200000222F4B0AE0104619462BA3D3E90023C3
:1025300001F06CF9013702460B46FFB2B742F2D305
:102540004046214600F0B0FFCDE9000101F0F8FB64
:102550000446214628460A225346FFF781FF80465B
:10256000002E35D0204601F0DBF80B460246DDE9AF
:10257000000100F097FF072E28BF07262E238DF8B5
:102580000830374601241AE00022164B01F03EF9CC
:102590008B46824601F0D4FB04AAC0B2131900F1A5
:1025A000300203F8082C01F0CBF802460B465046E7
:1025B000594600F077FF0134013FE4B2FFB2002F2B
:1025C000E2D12B6801365B68284602A9F2B298472F
:1025D000404604B0BDE8F08D9A9999999999B93F10
:1025E0000000E03F000024402DE9F04500248BB0BE
:1025F00007468A468D68264613E00DF104082346F7
:1026000050464146212200F027F93B68202D34BF77
:102610002A4620225B6838464146A418AD1A9847DE
:102620003618002DE9D130460BB0BDE8F08500BF6B
:1026300010B5034C2046FDF7EDFF024B236010BDA3
:1026400080F1FF1F288F0000FFF7AABDFFF75ABED9
:10265000FFF768BEFFF780BE08461146FFF7B6BD1C
:102660000846FFF717BEFFFF836899423CBF036827
:102670005A5470478368994201D2006818B90348D8
:102680000023037070474018704700BF90F1FF1F90
:102690008368994203D203680BB1585C70470020ED
:1026A0007047F5E730B5046844B1002303E08D427C
:1026B00008BFE2540133E55C002DF8D130BD00685D
:1026C00000B9704701F060BBF8B50768044607B36E
:1026D0008668F6B13D4600E00135287801F080FBC0
:1026E0000028F9D1013EBE19307801F079FB18B10C
:1026F000AE4201D3013EF7E72068721C521B8542AF
:10270000A26002D9294601F057FE2268A368002181
:10271000D1542046F8BD70B50568064645B1002481
:1027200003E002F081FF28550134285D0028F8D12C
:10273000304670BD70B50568064645B1002403E01B
:1027400002F066FF28550134285D0028F8D1304694
:1027500070BD8842F8B514D083688A68934212D15C
:102760007BB106680D68002408E002F051FF0746BF
:10277000285D02F04DFF0134874204D1305D00280E
:10278000F3D10120F8BD0020F8BDF8B516468A68DF
:102790000C46C2B18368B3B19A4214D807689E420E
:1027A00028BF5E1E38464FF0FF3508E0216802F072
:1027B0006DFD50B1C21BB24298BF15460130BB1926
:1027C0009842F3D901E04FF0FF352846F8BD826802
:1027D0008B68D21AD9E7836810B59A4202D34FF0BA
:1027E000FF3010BD04680968A01802F04FFD08B959
:1027F000013810BD001B10BD0022ECE7F8B583685E
:1028000004469A4202D34FF0FF30F8BD0368551CCE
:102810000022EF5CEA540668304602F093FB7755DD
:10282000034608B90138F8BD2068181AF8BD826857
:10283000013AE3E7836810B59A4202D34FF0FF30C4
:1028400010BD0468A01802F041F908B9013810BDA4
:10285000001B10BD0022EDE738B50C469AB194B1CB
:102860008568AB4202D30023237038BD511EED1A98
:102870008D4228BF0D4601682A465918204602F0AD
:1028800025FB0023635538BD10B58A6884689442DF
:102890000CD3036853B1096841B1A21A981802F029
:1028A00075F9D0F1010038BF002010BD002010BD27
:1028B000826808B50B4612B919B9012008BD31B9B3
:1028C00003681878D0F1010038BF002008BD006807
:1028D00002F05CF9D0F1010038BF002008BD0246CB
:1028E000006808B10B685BB90B6823B1896811B146
:1028F00018784042704730B1936823B10078704730
:10290000194602F043B90020704708B5FFF7E7FF0A
:10291000C043C00F08BD08B5FFF7E1FF0028CCBFDA
:102920000020012008BD08B5FFF7D9FF0028D4BF5B
:102930000020012008BD08B5FFF7D1FFC00F08BD7A
:1029400008B582688B689A4201D0002008BDFFF765
:10295000C6FFD0F1010038BF002008BD10B58B685C
:102960008468C3EB040C62450CD8006850B1096858
:1029700041B180181A4602F055FAD0F1010038BF73
:10298000002010BD002010BD82688B689A4201D2E1
:10299000002070470022E1E738B5054600680C4684
:1029A00060B16A688B689A4206D3096802F0DCF964
:1029B000A368AB6000230AE001F01CFA23682B60D7
:1029C00063686B60A368AB60002323606360A360EF
:1029D00038BD884210B5044601D0FFF7DDFF204620
:1029E00010BD884210B5044601D0FFF7D5FF204640
:1029F00010BD38B504460D4600F026FB204629469A
:102A0000FFF7CAFF204638BD38B504460D4600F032
:102A10001BFB20462946FFF7BFFF204638BD38B5CF
:102A200004460D4600F010FB20462946FFF7B4FF90
:102A3000204638BD38B504460D4600F005FB20465B
:102A40002946FFF7A9FF204638BD10B504460068A7
:102A500001F0D0F9204610BD10B50446006801F021
:102A6000C9F9204610BD38B504460D46006801314D
:102A700001F034FE00B938BD20606560012038BD2A
:102A80002DE9F84FD0F808A004460E461546BAF1D5
:102A9000000F76D0D1F80890B9F1000F71D0976887
:102AA000D0F800B0C9EB0707002F07D00EE0296867
:102AB000AA6801F081FCAB6807EB030B584631684C
:102AC00002F0E4FB07460028F1D15AE001DBD046D2
:102AD00024E0D84614E0CBEB090A5946404652465A
:102AE000D04401F069FC40462968AA6801F064FC02
:102AF000AB689844B36809EB030BA368DB19A360C8
:102B00005846316802F0C2FB81460028E3D14046B6
:102B1000594602F029F934E0CB44B84458463168AC
:102B200002F0B4FB83460028F6D1D04529D0636873
:102B3000984529D920464146FFF795FF08B323E081
:102B4000002A1EDB20463146FFF71FFEB0F10008C9
:102B500017DBB36821684344A268C918D21AC819A0
:102B600001F0F2FCA3682268FB180021A360D15495
:102B70002068AA684044296801F01EFC08F1FF3271
:102B8000DEE72046BDE8F88FA268013AD8E743683F
:102B900010B58B42044609D2FFF765FF00B910BD9E
:102BA000A3681BB922680120137010BD012010BD5D
:102BB00070B5836804460D46164622B1D6183146D4
:102BC000FFF7E5FF08B9204670BD2068A3682946D5
:102BD000C01802F0C9F8A660F5E710B5044600F089
:102BE00039FA204610BD38B504460D4639B10846BD
:102BF000FDF7F0FD294602462046FFF7D9FF2046A3
:102C000038BD0B4610B5096804469A68FFF7D0FF37
:102C1000204610BD30B585B001AC05460A220846F5
:102C20002146FDF7DFFD2046FDF7D4FD2146024693
:102C30002846FFF7BDFF284605B030BD10B5044655
:102C4000FFF7E8FF204610BD30B585B001AC054662
:102C50000A2208462146FDF7ECFD2046FDF7BAFDA5
:102C6000214602462846FFF7A3FF284605B030BD9F
:102C700010B50446FFF7E8FF204610BD37B50546FE
:102C80000A2208466946FDF7ADFD6846FDF7A2FD3C
:102C9000694602462846FFF78BFF6C4628463EBD34
:102CA00010B50446FFF7EAFF204610BD37B50546CC
:102CB0000A2208466946FDF7BCFD6846FDF78AFD15
:102CC000694602462846FFF773FF6C4628463EBD1C
:102CD00010B50446FFF7EAFF204610BD13B50023E8
:102CE00004468DF80410012201A98DF80530FFF784
:102CF0005FFF20461CBD10B5044600F0B8F9204621
:102D000010BD10B50446FFF7E9FF204610BD38B5E9
:102D100004460D4639B10846FDF75CFD29460246DA
:102D20002046FFF745FF204638BD0B469A680968E4
:102D30003EE7F8B504460E46154622B9036803B1CE
:102D40001A7000230BE01146FFF721FF074640B938
:102D5000206810B101F04EF8276000236360A36083
:102D600004E0A5602068314601F0FEFF2046F8BD72
:102D700007B500238DF80410012201A98DF8053054
:102D8000FFF7D7FF0EBD38B504460D4600F05CF9DD
:102D900020462946FFF7ECFF204638BD38B50446EB
:102DA0000D4600F051F920462946FFF7E1FF204685
:102DB00038BD38B504460D4600F046F92046294690
:102DC000FFF7D6FF204638BD38B504460D4600F063
:102DD0003BF920462946FFF7CBFF204638BD10B50A
:102DE000044600F046F9204610BD38B504460D46AD
:102DF00000F02AF920462946FFF7F1FF204638BDAA
:102E000038B504460D4600F01FF920462946FFF765
:102E1000E6FF204638BD38B504460D4641B10846A8
:102E2000FDF7D8FC294602462046FFF782FF00E066
:102E3000A160204638BDF0B58BB00F46164601ADF7
:102E4000044600F001F9294632463846FDF7CAFC2F
:102E500020462946FFF7DFFF20460BB0F0BDF0B556
:102E60008BB00F46164601AD044600F0EDF829463A
:102E700032463846FDF7B6FC20462946FFF7CBFF21
:102E800020460BB0F0BDF0B58BB00F46164601AD35
:102E9000044600F0D9F8294632463846FDF7C9FC09
:102EA00020462946FFF7B7FF20460BB0F0BDF0B52E
:102EB0008BB00F46164601AD044600F0C5F8294612
:102EC00032463846FDF7B5FC20462946FFF7A3FFFA
:102ED00020460BB0F0BDF0B587B00F46164601ADE9
:102EE000044600F0B1F8294632463846FDF77AFC30
:102EF00020462946FFF78FFF204607B0F0BDF0B50A
:102F000087B00F46164601AD044600F09DF82946ED
:102F100032463846FDF766FC20462946FFF77BFF20
:102F2000204607B0F0BDF0B587B00F46164601AD9C
:102F3000044600F089F8294632463846FDF779FC08
:102F400020462946FFF767FF204607B0F0BDF0B5E1
:102F500087B00F46164601AD044600F075F82946C5
:102F600032463846FDF765FC20462946FFF753FFF9
:102F7000204607B0F0BD88420B4602D009689A6827
:102F8000D7E6704738B504460D4600F05DF8204698
:102F90002946FFF7F0FF204638BD38B504460D46F8
:102FA00000F052F820462946FFF7E5FF204638BDDD
:102FB00038B50D46044600F047F83DB12846FDF708
:102FC00009FC294602462046FFF7B3FE204638BDDD
:102FD0009A422DE9F04105460C4616461F4601D996
:102FE0003E46174600212846FFF7E2FFA3689E42AF
:102FF0000FD89F4228BF1F462368002217F803807E
:10300000FA54216828467118FFF705FF236803F872
:1030100007802846BDE8F08110B58B680446FFF7AD
:10302000D7FF204610BD38B50D46044600F00CF819
:103030003DB12846FDF7CEFB294602462046FFF764
:1030400078FE204638BD00BF0023036043608360E4
:103050000373704770B5044608460D46FDF7BAFB8A
:10306000294602462046BDE87040FFF7A1BDFFF7A4
:1030700035BE70B5044608460D46FDF7ABFB294644
:1030800002462046BDE87040FFF753BE0379084A68
:1030900010B552F83340012384F88030090101391A
:1030A000FDD1017952F8312082F8003110BD00BF06
:1030B000508D000030B5002313E0C2780B4C4FF068
:1030C000100C54F83250012285F88020BCF1010C1C
:1030D000FCD190F803C09B1854F83C409BB284F894
:1030E00000211AB28A42E8DB30BD00BF508D0000DB
:1030F0008378164A30B552F83340012384F8803083
:103100004FF0100CBCF1010CFCD190F802C052F849
:103110003C2082F80031013B13E0C2780B4C4FF0A9
:10312000100C54F83250012285F88020BCF1010CBB
:10313000FCD190F803C09B1854F83C409BB284F833
:1031400000211AB28A42E8D130BD00BF508D000084
:103150000378154A30B552F83340012384F88030A3
:103160004FF0100CBCF1010CFCD190F800C052F8EB
:103170003C2082F80031013B12E042780A4C4FF0CB
:10318000100C54F83250012285F88020BCF1010C5B
:10319000FCD190F801C09B1854F83C4084F8002101
:1031A0008B42EAD130BD00BF508D000070B504469F
:1031B0001546FFF7CDFF20462946BDE8704097E74A
:1031C0004B1EDBB2062B04D8012301F118028371D8
:1031D00002E00023837110220521E7E7B2F1000C21
:1031E00018BF4FF0010C02EB430201EBC2020521B4
:1031F00080F806C0DAE770B504461E460D46062183
:10320000FFF7D4FF204607213246FFF7CFFF2046C5
:1032100004212A46BDE87040C8E710B506210446DF
:103220003722FFF7C3FF204607213722FFF7BEFFF3
:10323000204604211E22BDE81040B7E70A460721B8
:10324000B4E70A460621B1E70A460421AEE738B5DD
:1032500005460024E1B2013400222846A4B2FFF75B
:10326000A5FF082CF6D138BD2DE9F74F9A469DF8F9
:1032700034300D4600939DF83C30012104469DF802
:1032800030809DF8387001930026FFF78FFF31E002
:1032900020460021009A4FF00009FFF787FFCB4638
:1032A0001AE01023013BFDD1A3791BB12046022176
:1032B000FFF7ECFE1023013BFDD16079FDF740FAEA
:1032C000019925F809002046FFF7F4FE0BF1010BE8
:1032D0005FFA8BFB09F10209BB45E2D320460121CD
:1032E000FFF736FF20464146FFF7E4FE013605EBC7
:1032F0004705F6B25645CBD3BDE8FE8F2DE9F04722
:1033000004469DF820E09DF824C09DF8280084F82C
:1033100003E084F804C06270A370217060710846F5
:103320000121BDF92C70BDF93060BDF934509DF814
:1033300038A09DF83C80FDF73BFD60780121FDF74A
:1033400037FDA0780121FDF733FDE0780121FDF77D
:103350002FFD20790121FDF72BFD60790021FDF77C
:1033600027FD2378194A204652F83310012381F8AB
:1033700000316178B8F1000818BF4FF0010852F829
:10338000311081F80031A17852F8311081F8003104
:10339000E17852F8311081F80031217952F831206A
:1033A00082F80031FFF753FF2046394632462B465C
:1033B000FFF721FF0AF110022046052102EBC802A7
:1033C00084F80680BDE8F047F0E600BF508D0000AD
:1033D00010B50446FDF7FEF902460348214603688E
:1033E0005B68984710BD00BF80F1FF1F10B5FFF765
:1033F000EFFF04460248FFF726F8001910BD00BF92
:1034000080F1FF1F2DE9F04104462048FFF7EEFF51
:10341000204601210022FFF7C9FE00250021204699
:103420000A46FFF7C3FE00261023013BFDD1A37916
:103430001BB120460221FFF729FE1023013BFDD1DD
:103440006079FDF77DF9012107462046FFF732FE3E
:103450000136B9B20E48FFF747F8F6B20D48FFF74C
:10346000B7FF702EE0D101212046FFF771FE013534
:1034700001212046FFF71EFEEDB20648FFF7B6FF1A
:10348000702DCBD10448BDE8F041AFE7408F00007C
:1034900080F1FF1F488F00004A8F000081F000413B
:1034A00002E000BF83F0004330B54FEA41044FEA29
:1034B000430594EA050F08BF90EA020F1FBF54EAC4
:1034C000000C55EA020C7FEA645C7FEA655C00F060
:1034D000E2804FEA5454D4EB5555B8BF6D420CDD31
:1034E0002C4480EA020281EA030382EA000083EAB4
:1034F000010180EA020281EA0303362D88BF30BD54
:1035000011F0004F4FEA01314FF4801C4CEA1131A9
:1035100002D0404261EB410113F0004F4FEA033308
:103520004CEA133302D0524263EB430394EA050F93
:1035300000F0A780A4F10104D5F1200E0DDB02FA02
:103540000EFC22FA05F2801841F1000103FA0EF296
:10355000801843FA05F359410EE0A5F120050EF15C
:10356000200E012A03FA0EFC28BF4CF0020C43FA8D
:1035700005F3C01851EBE37101F0004507D54FF09A
:10358000000EDCF1000C7EEB00006EEB0101B1F5EA
:10359000801F1BD3B1F5001F0CD349085FEA300030
:1035A0004FEA3C0C04F101044FEA445212F5800F3B
:1035B00080F09A80BCF1004F08BF5FEA500C50F1D8
:1035C000000041EB045141EA050130BD5FEA4C0CBB
:1035D000404141EB010111F4801FA4F10104E9D144
:1035E00091F0000F04BF01460020B1FA81F308BF3B
:1035F0002033A3F10B03B3F120020CDA0C3208DD07
:1036000002F1140CC2F10C0201FA0CF021FA02F1E1
:103610000CE002F11402D8BFC2F1200C01FA02F151
:1036200020FA0CFCDCBF41EA0C019040E41AA2BF76
:1036300001EB0451294330BD6FEA04041F3C1CDA3E
:103640000C340EDC04F11404C4F1200220FA04F05E
:1036500001FA02F340EA030021FA04F345EA030108
:1036600030BDC4F10C04C4F1200220FA02F001FACA
:1036700004F340EA0300294630BD21FA04F029464C
:1036800030BD94F0000F83F4801306BF81F48011E5
:103690000134013D4EE77FEA645C18BF7FEA655C58
:1036A00029D094EA050F08BF90EA020F05D054EA2A
:1036B000000C04BF1946104630BD91EA030F1EBF2F
:1036C0000021002030BD5FEA545C05D14000494133
:1036D00028BF41F0004130BD14F580043CBF01F526
:1036E000801130BD01F0004545F0FE4141F470010C
:1036F0004FF0000030BD7FEA645C1ABF19461046E7
:103700007FEA655C1CBF0B46024650EA013406BFE7
:1037100052EA033591EA030F41F4002130BD00BFA6
:1037200090F0000F04BF0021704730B54FF4806463
:1037300004F132044FF000054FF0000150E700BFE4
:1037400090F0000F04BF0021704730B54FF4806443
:1037500004F1320410F0004548BF40424FF0000130
:103760003EE700BF42004FEAE2014FEA31014FEA73
:1037700002701FBF12F07F4393F07F4F81F06051C2
:10378000704792F0000F14BF93F07F4F704730B531
:103790004FF4607401F0004521F0004120E700BFC4
:1037A00050EA010208BF704730B54FF000050AE04B
:1037B00050EA010208BF704730B511F0004502D54C
:1037C000404261EB41014FF4806404F132045FEA4E
:1037D000915C3FF4DCAE4FF003025FEADC0C18BFF3
:1037E00003325FEADC0C18BF033202EBDC02C2F1E9
:1037F000200300FA03FC20FA02F001FA03FE40EA7B
:103800000E0021FA02F11444C1E600BF70B54FF07A
:10381000FF0C4CF4E06C1CEA11541DBF1CEA13555C
:1038200094EA0C0F95EA0C0F00F0DEF82C4481EAC4
:10383000030621EA4C5123EA4C5350EA013518BFE4
:1038400052EA033541F4801143F4801338D0A0FBD1
:1038500002CE4FF00005E1FB02E506F00042E0FB7E
:1038600003E54FF00006E1FB03569CF0000F18BF84
:103870004EF0010EA4F1FF04B6F5007F64F540742C
:1038800004D25FEA4E0E6D4146EB060642EAC621BF
:1038900041EA55514FEAC52040EA5E504FEACE2E2C
:1038A000B4F1FD0C88BFBCF5E06F1ED8BEF1004F2F
:1038B00008BF5FEA500E50F1000041EB045170BDAB
:1038C00006F0004646EA010140EA020081EA0301EF
:1038D000B4EB5C04C2BFD4EB0C0541EA045170BDEB
:1038E00041F480114FF0000E013C00F3AB8014F165
:1038F000360FDEBF002001F0004170BDC4F10004AE
:10390000203C35DA0C341BDC04F11404C4F120052E
:1039100000FA05F320FA04F001FA05F240EA020089
:1039200001F0004221F0004110EBD37021FA04F6BF
:1039300042EB06015EEA430E08BF20EAD37070BD79
:10394000C4F10C04C4F1200500FA04F320FA05F0D8
:1039500001FA04F240EA020001F0004110EBD370DA
:1039600041F100015EEA430E08BF20EAD37070BD4A
:10397000C4F1200500FA05F24EEA020E20FA04F323
:1039800001FA05F243EA020321FA04F001F00041D2
:1039900021FA04F220EA020000EBD3705EEA430E43
:1039A00008BF20EAD37070BD94F0000F0FD101F072
:1039B0000046400041EB010111F4801F08BF013CAB
:1039C000F7D041EA060195F0000F18BF704703F0E9
:1039D0000046520043EB030313F4801F08BF013D70
:1039E000F7D043EA0603704794EA0C0F0CEA13552C
:1039F00018BF95EA0C0F0CD050EA410618BF52EAE6
:103A00004306D1D181EA030101F000414FF00000EB
:103A100070BD50EA410606BF1046194652EA4306F9
:103A200019D094EA0C0F02D150EA013613D195EA6D
:103A30000C0F05D152EA03361CBF104619460AD1B5
:103A400081EA030101F0004141F0FE4141F47001BF
:103A50004FF0000070BD41F0FE4141F4780170BDAF
:103A600070B54FF0FF0C4CF4E06C1CEA11541DBF14
:103A70001CEA135594EA0C0F95EA0C0F00F0A7F816
:103A8000A4EB050481EA030E52EA03354FEA013143
:103A900000F088804FEA03334FF0805545EA131356
:103AA00043EA12634FEA022245EA111545EA10651E
:103AB0004FEA00260EF000419D4208BF964244F1B5
:103AC000FD0404F5407402D25B084FEA3202B61AD4
:103AD00065EB03055B084FEA32024FF480104FF4A8
:103AE000002CB6EB020E75EB030E22BFB61A75461C
:103AF00040EA0C005B084FEA3202B6EB020E75EBAF
:103B0000030E22BFB61A754640EA5C005B084FEA16
:103B10003202B6EB020E75EB030E22BFB61A7546E3
:103B200040EA9C005B084FEA3202B6EB020E75EBEE
:103B3000030E22BFB61A754640EADC0055EA060EAF
:103B400018D04FEA051545EA16754FEA06164FEAF2
:103B5000C30343EA52734FEAC2025FEA1C1CC0D19E
:103B600011F4801F0BD141EA00014FF000004FF02B
:103B7000004CB6E711F4801F04BF01430020B4F1EC
:103B8000FD0C88BFBCF5E06F3FF6AFAEB5EB030CA4
:103B900004BFB6EB020C5FEA500C50F1000041EBA1
:103BA000045170BD0EF0004E4EEA113114EB5C046E
:103BB000C2BFD4EB0C0541EA045170BD41F4801141
:103BC0004FF0000E013C90E645EA060E8DE60CEA49
:103BD000135594EA0C0F08BF95EA0C0F3FF43BAF66
:103BE00094EA0C0F0AD150EA01347FF434AF95EA1D
:103BF0000C0F7FF425AF104619462CE795EA0C0F01
:103C000006D152EA03353FF4FDAE1046194622E7CD
:103C100050EA410618BF52EA43067FF4C5AE50EAA7
:103C200041047FF40DAF52EA43057FF4EBAE12E797
:103C30004FF0FF3C06E000BF4FF0010C02E000BF78
:103C40004FF0010C4DF804CD4FEA410C7FEA6C5C5B
:103C50004FEA430C18BF7FEA6C5C1BD001B050EAFE
:103C6000410C0CBF52EA430C91EA030F02BF90EAE9
:103C7000020F0020704710F1000F91EA030F58BFA8
:103C8000994208BF90422CBFD8176FEAE37040F00A
:103C9000010070474FEA410C7FEA6C5C02D150EAA8
:103CA000013C07D14FEA430C7FEA6C5CD6D152EA63
:103CB000033CD3D05DF8040B704700BF8446104628
:103CC00062468C461946634600E000BF01B5FFF727
:103CD000B7FF002848BF10F1000F01BD4DF808EDF7
:103CE000FFF7F4FF0CBF012000205DF808FB00BFC8
:103CF0004DF808EDFFF7EAFF34BF012000205DF822
:103D000008FB00BF4DF808EDFFF7E0FF94BF01206E
:103D100000205DF808FB00BF4DF808EDFFF7CEFF6F
:103D200094BF012000205DF808FB00BF4DF808EDAE
:103D3000FFF7C4FF34BF012000205DF808FB00BF7F
:103D40004A0011D212F5001211D20DD56FF478731A
:103D5000B3EB62520ED44FEAC12343F0004343EA6F
:103D6000505323FA02F070474FF00000704750EABA
:103D7000013002D14FF0FF3070474FF00000704724
:103D800000220A2301F098BB00210A2201F034BC72
:103D900070B549F2640649F26405C0F20006C0F24B
:103DA0000005761BB61006D0002455F824300134E7
:103DB0009847A642F9D849F2640549F27C06C0F258
:103DC0000005C0F20006761B05F046F9B61006D0D5
:103DD000002455F8243001349847A642F9D870BD24
:103DE0004EF6C833C1F6FF731B68C318587800F04D
:103DF000080070474EF6CC330146C1F6FF731868D1
:103E000001F072BC4EF6CC330146C1F6FF73186860
:103E100000F000B82DE9F04F01F10B04162C83B02F
:103E200006462FD8002310248C422CBF194643F09D
:103E30000101002930D1304600F04CFCB4F5FC7F84
:103E40002ED24FEAD40E4EF2B475C1F6FF7505EBD3
:103E5000CE02D368934200F006825A6803F1080547
:103E6000D968304622F0030C9A6863445C688A6023
:103E700044F00104D1605C6000F02EFC284603B0E1
:103E8000BDE8F08F24F00704E30F8C422CBF1946E5
:103E900043F001010029CED00C2300253360EDE76B
:103EA0005FEA542E04BF4FEAD40E4FEACE0040F032
:103EB00090804EF2B475C1F6FF752818C368984219
:103EC00006D10DE0002A80F26F81DB68984207D0AE
:103ED000596821F003010A1B0F2AF3DD0EF1FF3EA2
:103EE0000EF1010E4EF2B477C1F6FF7707F108012B
:103EF0008B68994208BF7A6826D05A6822F0030C72
:103F0000C4EB0C020F2A00F39481002AC960896077
:103F100080F29980BCF5007F80F065814FEADC0C6F
:103F20004FF0010A7A6807EBCC004FEAAC0C0AFAB2
:103F30000CFCD860D0F808804CEA02027A60C3F822
:103F40000880C8F80C3083604FF0010C4FEAAE03D4
:103F50000CFA03FC944500F2828012EA0C0F08D19F
:103F60002EF0030E4FEA4C0C0EF1040E12EA0C0F69
:103F7000F8D007EBCE09F246C846D8F80C30984581
:103F800007D168E1002A80F27881DB68984500F06B
:103F90006281586820F00300021B0F2AF2DD1D46E3
:103FA0001F19D3F80CC044F0010E55F8084F3046E5
:103FB000BA5042F00102C3F804E0CCF80840C4F85B
:103FC0000CC08F60CF607A60B960F96000F084FB4C
:103FD00054E7BEF1040F9EBF4FEA941E0EF1380E57
:103FE0004FEACE007FF665AFBEF1140F9CBF0EF115
:103FF0005B0E4FEACE007FF65CAFBEF1540F9EBF62
:104000004FEA143E0EF16E0E4FEACE007FF651AF2E
:10401000BEF5AA7F9EBF4FEAD43E0EF1770E4FEA5F
:10402000CE007FF646AF40F254539E4595BF4FEA0F
:10403000944E4FF47C700EF17C0E4FF07E0E98BFC4
:104040004FEACE0035E703EB0C0203F108053046DA
:10405000536843F00103536000F03EFB0EE7D7F8CE
:104060000880D8F8043023F00309C4EB09024C455A
:1040700094BF002301230F2AD8BF43F00103002B74
:1040800000F0A1804FF2941BD5F80824C1F6FF7B05
:10409000DBF8003010331B19B2F1FF3F06D003F5F7
:1040A0007E631F3323F47E6323F01F0319463046DB
:1040B000019300F0F7FC019BB0F1FF3F824600F056
:1040C000F48008EB0901814200F2EC80DBF8042067
:1040D0009A185145CBF8042000F04581D5F80854D2
:1040E0004EF2B470C1F6FF70B5F1FF3F08BFC0F8E3
:1040F00008A403D05244511ACBF804101AF0070553
:10410000304617BFC5F108054FF48055AA4405F5A0
:10411000805553441B051B0DED1A294600F0C2FCC7
:10412000B0F1FF3F00F02C81CAEB0001491941F0CA
:104130000101DBF804204FF29413C7F808A0C1F680
:10414000FF73AA18B845CBF80420CAF8041017D09A
:10415000B9F10F0F40F2DF80A9F10C01052521F024
:10416000070108EB01000F2985604560D8F80400BD
:1041700000F0010041EA0000C8F8040000F2AC8041
:10418000D0464FF29413DBF82C10C1F6FF738A422D
:10419000DBF8301088BFDA624FF29413C1F6FF7378
:1041A0008A4288BF1A6382E05C189A68D9683046F0
:1041B000666803F108058A6046F00103D160636018
:1041C00000F08AFA5AE608EB040342F0010244F0D8
:1041D00001043046C8F8044008F108055A60BB6085
:1041E00000F07AFA4AE64FEA5C22042A54D9142AEB
:1041F00000F289805B324FEAC208A8444EF2B477DD
:10420000C1F6FF77D8F80800404503D16FE0806819
:10421000804504D0426822F003029445F7D3D0F8D9
:104220000CC0C3F80CC098607A68C360CCF8083042
:104230008AE61F19304644F00104CF605C6003F148
:104240000805BA5042F001028F607A60B960F960E7
:1042500000F042FA12E60AF1010A1AF0030F5FD0E9
:1042600003F1080889E603F10802D3689A4208BFFF
:104270000EF1020E3FF436AEEFE51D461918DA686E
:10428000304655F8083F4C68936044F00104DA600A
:104290004C6000F021FAF1E54FEA9C1238324FEA07
:1042A000C208AAE7B8453FF411AFD7F80880D8F89C
:1042B000042022F00302944294BF00230123121B26
:1042C0000F2AD8BF43F00103002B3FF47CAF3046E8
:1042D000002500F001FAD1E508F10801304601930C
:1042E00001F002FA019BD7F808805A6849E74FF0BD
:1042F000010AD7F80480921084460AFA02F248EACA
:1043000002027A608DE7542A24D84FEA1C326E32BA
:104310004FEAC20871E70123D046CAF80430C6E765
:104320004A461EF0030F13460EF1FF3E33D053F8FA
:1043300008299A42F5D07B684FEA4C0C9C453FF621
:104340008EAEBCF1000F3FF48AAE1CEA030F27D0FB
:10435000D6460EE6B2F5AA7F15D84FEADC327732A0
:104360004FEAC20849E70805000D00287FF4B6AE01
:10437000D7F808804B4443F00103C8F8043000E745
:1043800001210025D5E640F2545082420DD94FF468
:104390007C787E2231E77B6823EA0C037B60CBE7E5
:1043A0004FEA4C0C0AF1040ACFE74FEA9C427C32F8
:1043B0004FEAC20821E700BF032A2DE9F0070BD816
:1043C0003AB1002311F803C000F803C0013393424F
:1043D000F8D1BDE8F007704782180C46034603E0A9
:1043E00014F8011C03F8011C03F003061946A44647
:1043F00001330134002EF3D11CF00304634608BFDF
:10440000C1EB020C68D06542C4F1040A0CEB05074D
:1044100033464FEACA0A5CF805604FEAC408551AE9
:1044200008E057F8044F264604FA0AF449EA04045F
:10443000CC5004335C18032D26FA08F9A5F10405C5
:104440000CEB0306EDDC002302E0F15CE1540133E8
:1044500019199142F9D3BCE753F8404C41F8404C4C
:1044600053F83C4C41F83C4C53F8384C41F8384C2C
:1044700053F8344C41F8344C53F8304C41F8304C3C
:1044800053F82C4C41F82C4C53F8284C41F8284C4C
:1044900053F8244C41F8244C53F8204C41F8204C5C
:1044A00053F81C4C41F81C4C53F8184C41F8184C6C
:1044B00053F8144C41F8144C53F8104C41F8104C7C
:1044C00053F80C4C41F80C4C53F8084C41F8084C8C
:1044D00053F8044C41F8044C1C460D46403340311F
:1044E000BCF13F0FACF1400CB6DC21462B46541B0F
:1044F0000FE051F8105C43F8105C51F80C5C43F885
:104500000C5C51F8085C43F8085C51F8045C43F813
:10451000045C0F2C0D469C4601F1100103F11003C1
:10452000A4F11004E5DCCCEB0201002303E0EC581D
:104530004CF8034004335E19032903EB0C04A1F18A
:104540000401F4DC7FE700BF88428C4670B4054666
:1045500014460ED98B1898420BD242B1C2EB030C11
:104560000146531E1CF80320CA54013BFAD270BC0A
:1045700070470F2A09D8002CF9D000231CF803201B
:10458000EA540133A342F9D1F1E741EA000313F001
:10459000030FF0D194460C4603462568ACF1100C8D
:1045A0001D6065685D60A5689D60E5681034DD602C
:1045B0001033BCF10F0FF0D8103A4FEA121C0CF177
:1045C0000105CCEB0C7C2D0102EB0C1601EB050C6C
:1045D0004519032E3446CED900235CF80320EA5057
:1045E0000433F21A032AF8D8043EB3085A1CC3EB6A
:1045F00083739200944406EB8304AD18BBE700BFBD
:10460000032AC9B230B407D822B10023C154013300
:104610009342FBD130BC704700EB020C034601E033
:1046200003F8011C03F003041A460133002CF7D1F0
:104630004FF00133C2EB0C0403FB01F31FE042F81F
:10464000403C42F83C3C42F8383C42F8343C42F8AA
:10465000303C42F82C3C42F8283C42F8243C42F8DA
:10466000203C42F81C3C42F8183C42F8143C42F80A
:10467000103C42F80C3C42F8083C42F8043C154619
:1046800040323F2CA4F14004D9DC2A46C5EB0C048F
:1046900007E042F8103C42F80C3C42F8083C42F873
:1046A000043C154610320F2CA4F11004F1DC2A460C
:1046B000C5EB0C0501E042F8043C14460432032D1E
:1046C000A5F10405F7DC01E004F8011B6445FBD308
:1046D000A0E700BF704700BF704700BF4EF6CC3365
:1046E0000A46C1F6FF730146186800F001B800BF22
:1046F0002DE9F04F914683B007460E46002900F0A1
:104700003A81A1F1080809F10B04FFF7E3FF162C29
:10471000D8F804100B4600F2A080102200251446A1
:104720004C4538BF45F00105002D40F02A8121F0AD
:10473000030A9245A2BF4046554608F1080875DABB
:104740004EF2B47308EB0A00C1F6FF73D3F808E029
:10475000864500F01A81D0F804C02CF0010B834488
:10476000DBF804B01BF0010F7CD0AC46284611F0FA
:10477000010F40F09B8056F8081CC1EB080BDBF8DA
:10478000045025F00305002800F0DD80704500F09E
:104790001F8105EB0A030CEB03059542B8BF1D46CC
:1047A000C0F2D28081685B46C068AAF10402242A64
:1047B0008160C86053F8081FDBF80C008160C86096
:1047C00000F2D080132A9C4621D931460BF1100CFF
:1047D00051F8040BCBF8080070680E1D1B2ACBF8AB
:1047E0000C0014D94868311D0BF1180CCBF81000DF
:1047F00070680E1D242ACBF8140008D14A680BF10A
:10480000200CCBF8182072680836CBF81C203146F3
:1048100098466246584651F8043B42F8043B736898
:10482000CCF804304B685360DBF80430C4EB050C63
:10483000BCF10F0F26D8421903F0010343EA050526
:104840004560536843F00103536038464546FFF71F
:1048500043FF284603B0BDE8F08F24F0070422464A
:10486000E50F5DE72CF0030C0CEB0A059542FFF613
:104870007EAF82680B46C168404608F108088A602E
:10488000D160D3E7011903F0010301EB0C0243EA05
:1048900004044CF0010344604B603846536808310F
:1048A00043F00103536000F01FFFCEE7494638464E
:1048B000FFF7B0FA0546002841D0D8F80430A0F13F
:1048C000080223F0010141448A4200F0D780AAF196
:1048D00004023146242A78D8132A034621D93446C3
:1048E00054F8043B211D40F8043B031DD6F804C0D6
:1048F0001B2AC5F804C014D9D4F804E01C1D01F12A
:10490000040CC0F804E048680CF104015860231D51
:10491000242A06D1DCF8042062604A6808315A6013
:10492000083308461A4650F8044B42F8044B4968CD
:104930005960436853603146384600F0D5FE38462A
:10494000FFF7CAFE85E755449542AFDB5B46DBF8CF
:104950000C00AAF1040253F8081F242A8160C860E1
:104960007FF630AF184631469846FFF7EDFD5846C2
:10497000DBF804305AE7114603B0BDE8F04FFFF70B
:1049800049BA0C2300253B6063E7DEF8045004F1CC
:10499000100B25F0030C0CEB0A005845B8BF70460D
:1049A000FFF6E5AE08EB0402011B41F001019A603D
:1049B00051603846D8F80410354601F001031C4315
:1049C000C8F80440FFF788FE43E7FFF7BDFDB2E7F4
:1049D000554404F11001AC448C45B5DB5D46DBF871
:1049E0000C00AAF1040255F8081F242A8160C8604F
:1049F0004CD8132A284624D931460BF1100051F81F
:104A000004EBCBF808E0D6F804E00E1D1B2ACBF827
:104A10000CE016D9D1F804E0311D0BF11800CBF8E9
:104A200010E0D6F804E00E1D242ACBF814E008D1DB
:104A30004A680BF12000CBF8182072680836CBF8D2
:104A40001C203146024651F804EB42F804EB76682C
:104A50004660496851600BEB0402C4EB0C0141F065
:104A600001019A6051603846DBF8041001F001033F
:104A70001C43CBF80440FFF72FFEEAE6556840469A
:104A800008F1080825F003055544CFE631462846CD
:104A90000093CDF804C0FFF757FDDDF804C0009B7C
:104AA000D9E700BF38B54FF2D014C1F6FF74054600
:104AB000084600232360FBF77EFEB0F1FF3F00D0E5
:104AC00038BD2368002BFBD02B6038BDC9B230B491
:104AD00019B124E00378D3B1013010F0030FF9D1FC
:104AE0000368A3F1013222EA030313F0803F08D1E7
:104AF00050F8043FA3F1013222EA030313F0803F90
:104B0000F6D003781BB110F8013F002BFBD130BC6D
:104B100070470378002B36D09942F8D0013010F05E
:104B2000030FF6D1036841EA0125A3F1013245EAFA
:104B3000054522EA030212F0803F1BD185EA0303F8
:104B4000A3F1013222EA030313F0803F03D011E006
:104B500012F0803F0ED150F8043FA3F1013485EAF2
:104B6000030224EA0303A2F1013C13F0803F2CEA84
:104B70000202EDD003781BB905E010F8013F13B134
:104B80009942FAD1C3E70020C1E700BF80EA0102E1
:104B900012F0030F3AD110F0030220F0030021F0CD
:104BA000030150F804CB08BF51F8043B0DD082F04C
:104BB00003024FEAC2026FF07F4323FA02F251F878
:104BC000043B4CEA020C43EA020300BFACF10132A1
:104BD0009C4501BF22EA0C0212F0803F50F804CB42
:104BE00051F8043BF2D04FEA0C604FEA1C2C01282C
:104BF00028BFB0EB036F08BF1B0AF4D003F0FF031C
:104C00004FEA1060A0EB0300704700BF10F0030FE5
:104C10000AD010F8012B11F8013B012A28BF9A4253
:104C2000F4D0A2EB030070474DF8045D4DF8044D3D
:104C30004FF0010242EA022242EA024201F0030C72
:104C400021F0030150F8044B51F8045BBCF1020F52
:104C500026D04BD824F07F4CBCEB152FA4EB0203DD
:104C600023EA04030DD113EAC21308BF51F8045B11
:104C70000AD18CEA040CBCEB056F0CD150F8044B44
:104C8000E8E74FEA15255CE033F07F4352D10D7819
:104C90004FEA146C55E04FEA146C05F0FF0550E044
:104CA0004FEA044CA4EB02034FEA1C4C23EA040332
:104CB000BCEB154F17D113EAC21308BF51F8045BC0
:104CC00007D18CEA040CBCEB054F08D150F8044B1B
:104CD000E6E71B042ED10D884FEA144C31E04FEA71
:104CE00005454FEA144C4FEA15452AE004F0FF0C45
:104CF000BCEB156FA4EB020323EA04030DD113EA06
:104D0000C21308BF51F8045B0AD18CEA040CBCEB57
:104D1000052F0AD150F8044BE8E74FEA156510E07B
:104D200014F0FF0F06D051F8045B4FEA142C25F065
:104D30007F4506E04FF000005DF8044B5DF8045B32
:104D400070470CF0FF0205F0FF00012828BF9042D9
:104D500004BF4FEA1C2C2D0AF3D0A2EB00005DF833
:104D6000044B5DF8045B704780EA0102844612F050
:104D7000030F4FD111F0030F32D14DF8044D11F054
:104D8000040F51F8043B0BD0A3F101329A4312F007
:104D9000803F04BF4CF8043B51F8043B16D100BFE0
:104DA00051F8044BA3F101329A4312F0803FA4F171
:104DB00001320BD14CF8043BA24312F0803F04BFF8
:104DC00051F8043B4CF8044BEAD023460CF8013B65
:104DD00013F0FF0F4FEA3323F8D15DF8044B70470F
:104DE00011F0010F06D011F8012B0CF8012B002A4D
:104DF00008BF704711F0020FBFD031F8022B12F03C
:104E0000FF0F16BF2CF8022B8CF8002012F47F4FF6
:104E1000B3D1704711F8012B0CF8012B002AF9D1FE
:104E2000704700BF30B41346002A43D041EA000265
:104E300012F0030F25D1032B04460D463DD902681D
:104E400009688A4239D1043B34D0A2F1013121EA08
:104E5000020212F0803F0DD02CE022682968A2F1F6
:104E600001308A4220EA020027D1043B22D010F010
:104E7000803F1FD104340435032BEED82046294649
:104E8000F3B10478013B91F800C064450FD18BB1B8
:104E900084B1013B002202E063B15CB1013B8418A4
:104EA0008D180132647895F801C06445F4D0CCEBDC
:104EB000040000E0002030BC704720462946E0E7AF
:104EC000247895F800C0CCEB0400F4E741EA000335
:104ED00013F0030F14BF00230123032A94BF002300
:104EE00003F0010330B4002B2AD004460B68A3F171
:104EF000013C2CEA030C1CF0803F05D1043A04313C
:104F0000032A44F8043BF1D82346BAB10D781C4675
:104F1000013A04F8015B55B102337AB111F8015F2F
:104F20001C46013A03F8015C0133002DF5D12AB18A
:104F300000231946E15401339342FBD130BC704742
:104F40000346E2E770B503460C4661B1002500E078
:104F5000154618462146FFF7B9FD0246431C0028B6
:104F6000F6D1284670BDBDE87040FFF7AFBD00BF69
:104F700001232DE9F0071C4600254FF0FF3604EB16
:104F8000050CA7198C450DD23F5C10F80C80B84574
:104F90002FD2C6EB0C030124654604EB050CA719C0
:104FA0008C45F1D34FF0010A002554464FF0FF37EE
:104FB00004EB050C1360614504EB07080FD918F8E2
:104FC000008010F80C90C14524D9C7EB0C0A0124CD
:104FD000654604EB050C04EB07086145EFD8013783
:104FE000701C874224BF534638461360BDE8F00763
:104FF000704706D001232E4605EB030C1C46654680
:10500000CBE79C4204F1010418BFAC46C4D1012493
:105010006546C2E707D04FF0010A2F4605EB0A0CA0
:1050200054466546D5E7544504F1010418BFAC4623
:10503000CED101246546CCE72DE9F04FADF5846D66
:1050400081B006461046894603920DF582621946E4
:105050000C321C46FFF78CFF002307AA8046D45071
:105060000433B3F5806FFAD164B1DDF80CC0621E71
:10507000002307A81CF80310013340F82120013A4F
:105080009C42F7D803984246DDF81C14411800F002
:1050900045FC0546002840F08B8002948246029B26
:1050A000C8F101020399671E05920AEB03044A4600
:1050B00008F1FF30414401900491B0180021A21A78
:1050C000DDF80CB000F0F0FB0346002859D1002CAD
:1050D00057D0A21907A812F8012C50F82220002A54
:1050E0005BD145452CBF2B464346BB4213D203EB55
:1050F0000A001BF803C032180BEB0301305C844537
:1051000006D044E011F801CF12F8010F84453ED1DA
:105110000133BB42F6D3454580F0B0800199019B35
:1051200001EB0A021BF80110925D914240F0A6804B
:105130000AEB08020499B218A14608E011F8024CE3
:10514000013912F802CC013A644504D103469D426C
:1051500003F1FF30F2D301354C469D4200F29380BB
:10516000DDF81C54029AAA44551B2246029BB01833
:1051700000210AEB0304A21A00F096FB0346002864
:10518000A5D0002009B00DF5806DBDE8F08F059920
:10519000002522468A449A44E8E735B1DDF81C141C
:1051A0008A4202D202981D46421A92442246DDE704
:1051B0000398C8EB04034A460027651E08F1FF3A2E
:1051C00000EB080BA146434538BF4346C8F1010137
:1051D00001330191CDF81C3407EB0904B01800210C
:1051E000A21A00F061FB0028CBD1002CC9D0A31972
:1051F00007AA13F8013C52F82330002B35D1A845FB
:1052000014D207EB08039BF80020F118F35C9A42D4
:1052100004BF5A46434606D02AE012F801CF11F8DF
:10522000010F844525D10133AB42F6D3BAF1FF3FDC
:10523000534616D003980AEB0702925D10F80A1045
:10524000914210D107EB08025946B21807E011F855
:1052500002CC013912F8020C013A844503D1013B1A
:10526000F5D2F0198EE7DDF81C34FF182246B3E7BB
:105270004346019AD7192246FF18ADE74346013548
:105280009D427FF66DAF06EB0A007BE72DE9F04FFC
:10529000037887B006460D46002B00F004810A789B
:1052A00092B101462C46012001E0227882B193425E
:1052B00014BF002000F001004B7801340131002BB5
:1052C000F3D1237823B10026304607B0BDE8F08F34
:1052D0000028F9D1701C2978FFF7F8FB641B012C1A
:1052E00014BF00230123002808BF43F00103074631
:1052F0007BB93619B0428CBF4FF0010AC0EB060AE9
:105300001F2C08D951462A462346FFF795FE06462C
:10531000DAE70646D8E7214605AA2846FFF728FE21
:105320000599691880462846424600F0F7FA064675
:10533000002858D108F1FF3205EB08030192C3465B
:10534000C8F1010281460392A8465246029309EB36
:105350000405B8180021AA1A00F0A6FA0028B2D154
:10536000002DB0D05E452CBF33465B469C4213D91E
:1053700003EB090018F803C03A1808EB0301385C86
:10538000844506D085E011F801CF12F8010F84455D
:105390007FD101339C42F6D8B34540F28780019B10
:1053A00003EB090218F80310D25D91427ED109EB9C
:1053B0000B020299BA18AA4608E011F8025C0139FA
:1053C00012F802CC013A654504D103469E4203F12E
:1053D000FF30F2D3554601369E4269D8059E2A46D3
:1053E000B144A61BB3E7C8F10102C8EB0403019264
:1053F0000026524605EB080908F1FF3BAA46434543
:1054000038BF4346013305933519B8180021AA1A4D
:1054100000F04AFA00287FF456AF002D3FF453AF56
:10542000444515D906EB080399F80020F918FB5CF0
:105430009A4212BF43464A46434606D024E012F839
:1054400001CF11F8010F84451ED101339C42F6D8DB
:10545000BBF1FF3F5B4615D006EB0B021AF80B10B1
:10546000D25D91421BD106EB08024946BA1807E00B
:1054700011F802CC013912F8020C013A84450ED120
:10548000013BF5D2BE191FE7019A96192A46F61874
:10549000BAE7039A002691442A46994457E7059BA8
:1054A0002A46F618B0E70C4601200AE75B4692E769
:1054B00007EB090608E700BF2DE9F04F4EF6C835A7
:1054C000C1F6FF7583B00C461F46D5F800800E4626
:1054D0000190009216F8015B08EB050393F801B008
:1054E0001BF0080BF6D12D2D65D02B2D08BF16F81B
:1054F000015BD7F1010338BF0023102F14BF1A46F8
:1055000043F0010232B1302D66D01BB1302D0CBFFB
:1055100008270A27BBF1000F394614BF4FF0004996
:105520006FF00049484600F059FB48468A46394624
:1055300000F026FA00218C4608EB0502A5F13003A5
:10554000527812F0040F08D112F0030F20D012F09D
:10555000010F14BF37235723EB1A9F4218DD8445F0
:1055600094BF0022012252EAD1714FF0FF310CD1D9
:10557000844514BF002201225345D4BF002202F00B
:10558000010212B907FB0C3C012116F8015BD3E7BD
:10559000B1F1FF3F14D0BBF1000F09D16046009B71
:1055A0001BB101B1741E009A146003B0BDE8F08F06
:1055B000CCF10000F3E716F8015B4FF0010B98E720
:1055C000019ABBF1000F4FF0220314BF4FF00040CF
:1055D0006FF000401360E2E73278782A14BF0021B0
:1055E0000121582A14BF0A4641F00102002A8CD03A
:1055F0007578102702368DE710B44EF6CC34C1F61C
:10560000FF748C46134601466246206810BC53E77F
:105610004EF6C833C1F6FF731B68C3185B7813F0EE
:10562000010F18BF203070474EF6C833C1F6FF7324
:105630001B68C3185B7813F0020F18BF203870473F
:10564000F8B54EF2B474C1F6FF740F460546FFF785
:1056500041F8A3685E6826F0030606F57E630F3303
:10566000DF1B3F0B013F3F03B7F5805F07DB0021E6
:105670002846FFF717FAA368F318834204D0284698
:10568000FFF72AF80020F8BD79422846FFF70AFA0A
:10569000B0F1FF3F10D0A2684FF29813C1F6FF732C
:1056A000F61B46F00106284656601A68D71B1F6095
:1056B000FFF712F80120F8BD00212846FFF7F2F9A4
:1056C000A368C21A0F2ADADD4EF6BC344FF29811E5
:1056D000C1F6FF74C1F6FF7142F001022468001B9D
:1056E00008605A60CBE700BF2DE9F04105460C4643
:1056F000002900F08880FEF7EDFFA4F108024EF2C9
:10570000B4705668C1F6FF7026F00103D0F808C0E7
:10571000D1188C454F6827F0030700F0958016F0EC
:1057200001064F605FD00026CC19646814F0010FA9
:1057300006D1DB19002E7AD08C68C9688C60E160D4
:1057400043F00101D3505160002E47D1B3F5007FE3
:105750005BD3590A04299EBF4FEA931C0CF1380C05
:105760004FEACC0428D914299CBF01F15B0C4FEA05
:10577000CC0421D954299EBF4FEA133C0CF16E0C86
:105780004FEACC0418D9B1F5AA7F9EBF4FEAD33CAB
:105790000CF1770C4FEACC040ED940F2545C614511
:1057A00095BF4FEA934C4FF47C740CF17C0C4FF096
:1057B0007E0C98BF4FEACC040419A168A14203D122
:1057C00064E089688C4204D0486820F0030083427A
:1057D000F7D3CB68D3609160CA609A602846BDE871
:1057E000F041FEF779BF54F8084C00F1080C121B89
:1057F0001B199468644547D0D2F80CC0CCF8084017
:10580000C4F80CC090E7BDE8F081DB084FF0010C54
:10581000466800EBC3019B100CFA03F3D1608C685F
:1058200046EA030343609460E2608A60D6E78C68CE
:105830001C4FBC4281D1D35043F00103E260A2600F
:1058400053609460D460C9E7FB1816F0010F07D1CC
:1058500054F8081C521A5B18D4689168A160CC6097
:105860004EF6C0318260C1F6FF7143F00100506016
:105870000A689342B2D34FF294132846C1F6FF73DD
:105880001968FFF7DDFEA9E701264DE70126446808
:105890004FEAAC0C0B4606FA0CFC44EA0C044460DC
:1058A00098E700BFBCE7FF1F10F0030FC9B210B4A8
:1058B00010D0002A2FD003788B422AD0013A05E07D
:1058C000002A28D00378013A8B4222D0013010F010
:1058D000030FF5D1032A11D941EA012444EA044413
:1058E000036884EA0303A3F1013C2CEA030313F0E9
:1058F000803F03D1043A0430032AF1D85AB1037827
:105900008B4206D0013A32B110F8013F013A8B4286
:10591000F9D110BC70470020FBE700BF032A30B468
:1059200005460C4625D941EA000313F0030F15D0B4
:10593000287894F800C060451ED1013A002306E0A3
:105940004078013391F801C0013A604514D1E8185C
:10595000E118002AF4D1002030BC704704680B68BD
:105960009C4204D1043A04300431032AF6D8054697
:105970000C46002ADCD1EEE7CCEB0000ECE700BFE0
:105980004A1E08BF7047C0F02481884240F2168149
:10599000114200F01781B0FA80F3B1FA81F2A2EB64
:1059A0000303C3F11F0304A202EB03134FF0000231
:1059B0009F4600BFAFF30080B0EBC17F00BF42EB5A
:1059C000020228BFA0EBC170B0EB817F00BF42EBA9
:1059D000020228BFA0EB8170B0EB417F00BF42EB19
:1059E000020228BFA0EB4170B0EB017F00BF42EB89
:1059F000020228BFA0EB0170B0EBC16F00BF42EB09
:105A0000020228BFA0EBC160B0EB816F00BF42EB88
:105A1000020228BFA0EB8160B0EB416F00BF42EBF8
:105A2000020228BFA0EB4160B0EB016F00BF42EB68
:105A3000020228BFA0EB0160B0EBC15F00BF42EBE8
:105A4000020228BFA0EBC150B0EB815F00BF42EB68
:105A5000020228BFA0EB8150B0EB415F00BF42EBD8
:105A6000020228BFA0EB4150B0EB015F00BF42EB48
:105A7000020228BFA0EB0150B0EBC14F00BF42EBC8
:105A8000020228BFA0EBC140B0EB814F00BF42EB48
:105A9000020228BFA0EB8140B0EB414F00BF42EBB8
:105AA000020228BFA0EB4140B0EB014F00BF42EB28
:105AB000020228BFA0EB0140B0EBC13F00BF42EBA8
:105AC000020228BFA0EBC130B0EB813F00BF42EB28
:105AD000020228BFA0EB8130B0EB413F00BF42EB98
